{
  "contractName": "VoteEvent",
  "abi": [
    {
      "inputs": [
        {
          "internalType": "address",
          "name": "owner",
          "type": "address"
        },
        {
          "internalType": "string",
          "name": "des",
          "type": "string"
        }
      ],
      "payable": false,
      "stateMutability": "nonpayable",
      "type": "constructor"
    },
    {
      "constant": true,
      "inputs": [],
      "name": "description",
      "outputs": [
        {
          "internalType": "string",
          "name": "",
          "type": "string"
        }
      ],
      "payable": false,
      "stateMutability": "view",
      "type": "function"
    },
    {
      "constant": true,
      "inputs": [],
      "name": "host",
      "outputs": [
        {
          "internalType": "address",
          "name": "",
          "type": "address"
        }
      ],
      "payable": false,
      "stateMutability": "view",
      "type": "function"
    },
    {
      "constant": false,
      "inputs": [
        {
          "internalType": "address",
          "name": "applicant",
          "type": "address"
        }
      ],
      "name": "approveApplicant",
      "outputs": [],
      "payable": false,
      "stateMutability": "nonpayable",
      "type": "function"
    },
    {
      "constant": false,
      "inputs": [],
      "name": "closeEven",
      "outputs": [],
      "payable": false,
      "stateMutability": "nonpayable",
      "type": "function"
    },
    {
      "constant": false,
      "inputs": [],
      "name": "registerAsApplicant",
      "outputs": [],
      "payable": false,
      "stateMutability": "nonpayable",
      "type": "function"
    },
    {
      "constant": false,
      "inputs": [
        {
          "internalType": "address",
          "name": "applicant",
          "type": "address"
        }
      ],
      "name": "voteFor",
      "outputs": [],
      "payable": false,
      "stateMutability": "nonpayable",
      "type": "function"
    },
    {
      "constant": true,
      "inputs": [],
      "name": "getAllApplicantAddr",
      "outputs": [
        {
          "internalType": "address[]",
          "name": "",
          "type": "address[]"
        }
      ],
      "payable": false,
      "stateMutability": "view",
      "type": "function"
    },
    {
      "constant": true,
      "inputs": [
        {
          "internalType": "address",
          "name": "applicant",
          "type": "address"
        }
      ],
      "name": "getResultFor",
      "outputs": [
        {
          "internalType": "uint256",
          "name": "",
          "type": "uint256"
        }
      ],
      "payable": false,
      "stateMutability": "view",
      "type": "function"
    }
  ],
  "bytecode": "0x608060405234801561001057600080fd5b50604051610bc7380380610bc78339818101604052604081101561003357600080fd5b81019080805190602001909291908051604051939291908464010000000082111561005d57600080fd5b8382019150602082018581111561007357600080fd5b825186600182028301116401000000008211171561009057600080fd5b8083526020830192505050908051906020019080838360005b838110156100c45780820151818401526020810190506100a9565b50505050905090810190601f1680156100f15780820380516001836020036101000a031916815260200191505b50604052505050816000806101000a81548173ffffffffffffffffffffffffffffffffffffffff021916908373ffffffffffffffffffffffffffffffffffffffff160217905550806001908051906020019061014e929190610156565b5050506101fb565b828054600181600116156101000203166002900490600052602060002090601f016020900481019282601f1061019757805160ff19168380011785556101c5565b828001600101855582156101c5579182015b828111156101c45782518255916020019190600101906101a9565b5b5090506101d291906101d6565b5090565b6101f891905b808211156101f45760008160009055506001016101dc565b5090565b90565b6109bd8061020a6000396000f3fe608060405234801561001057600080fd5b50600436106100885760003560e01c8063cd2452871161005b578063cd2452871461020b578063da3550ee14610215578063f2d6f64214610259578063f437bc591461026357610088565b80631292a2821461008d5780632dae38e4146100d15780637284e416146101305780637f3af358146101b3575b600080fd5b6100cf600480360360208110156100a357600080fd5b81019080803573ffffffffffffffffffffffffffffffffffffffff1690602001909291905050506102ad565b005b6100d9610518565b6040518080602001828103825283818151815260200191508051906020019060200280838360005b8381101561011c578082015181840152602081019050610101565b505050509050019250505060405180910390f35b6101386105a6565b6040518080602001828103825283818151815260200191508051906020019080838360005b8381101561017857808201518184015260208101905061015d565b50505050905090810190601f1680156101a55780820380516001836020036101000a031916815260200191505b509250505060405180910390f35b6101f5600480360360208110156101c957600080fd5b81019080803573ffffffffffffffffffffffffffffffffffffffff169060200190929190505050610644565b6040518082815260200191505060405180910390f35b610213610690565b005b6102576004803603602081101561022b57600080fd5b81019080803573ffffffffffffffffffffffffffffffffffffffff169060200190929190505050610753565b005b6102616108a1565b005b61026b610937565b604051808273ffffffffffffffffffffffffffffffffffffffff1673ffffffffffffffffffffffffffffffffffffffff16815260200191505060405180910390f35b806102b661095c565b600360008373ffffffffffffffffffffffffffffffffffffffff1673ffffffffffffffffffffffffffffffffffffffff16815260200190815260200160002060405180608001604052908160008201548152602001600182018054600181600116156101000203166002900480601f0160208091040260200160405190810160405280929190818152602001828054600181600116156101000203166002900480156103a35780601f10610378576101008083540402835291602001916103a3565b820191906000526020600020905b81548152906001019060200180831161038657829003601f168201915b505050505081526020016002820160009054906101000a900460ff161515151581526020016002820160019054906101000a900460ff16151515158152505090506001151581606001511515146103f957600080fd5b3373ffffffffffffffffffffffffffffffffffffffff166000809054906101000a900473ffffffffffffffffffffffffffffffffffffffff1673ffffffffffffffffffffffffffffffffffffffff161461045257600080fd5b6001600360008573ffffffffffffffffffffffffffffffffffffffff1673ffffffffffffffffffffffffffffffffffffffff16815260200190815260200160002060020160006101000a81548160ff02191690831515021790555060048390806001815401808255809150509060018203906000526020600020016000909192909190916101000a81548173ffffffffffffffffffffffffffffffffffffffff021916908373ffffffffffffffffffffffffffffffffffffffff16021790555050505050565b6060600480548060200260200160405190810160405280929190818152602001828054801561059c57602002820191906000526020600020905b8160009054906101000a900473ffffffffffffffffffffffffffffffffffffffff1673ffffffffffffffffffffffffffffffffffffffff1681526020019060010190808311610552575b5050505050905090565b60018054600181600116156101000203166002900480601f01602080910402602001604051908101604052809291908181526020018280546001816001161561010002031660029004801561063c5780601f106106115761010080835404028352916020019161063c565b820191906000526020600020905b81548152906001019060200180831161061f57829003601f168201915b505050505081565b6000600360008373ffffffffffffffffffffffffffffffffffffffff1673ffffffffffffffffffffffffffffffffffffffff168152602001908152602001600020600001549050919050565b600033905060001515600360008373ffffffffffffffffffffffffffffffffffffffff1673ffffffffffffffffffffffffffffffffffffffff16815260200190815260200160002060020160019054906101000a900460ff161515146106f557600080fd5b6001600360008373ffffffffffffffffffffffffffffffffffffffff1673ffffffffffffffffffffffffffffffffffffffff16815260200190815260200160002060020160016101000a81548160ff02191690831515021790555050565b60001515600260003373ffffffffffffffffffffffffffffffffffffffff1673ffffffffffffffffffffffffffffffffffffffff16815260200190815260200160002060009054906101000a900460ff161515146107b057600080fd5b60001515600560009054906101000a900460ff161515146107d057600080fd5b6001600260003373ffffffffffffffffffffffffffffffffffffffff1673ffffffffffffffffffffffffffffffffffffffff16815260200190815260200160002060006101000a81548160ff0219169083151502179055506000600360008373ffffffffffffffffffffffffffffffffffffffff1673ffffffffffffffffffffffffffffffffffffffff1681526020019081526020016000209050600115158160020160009054906101000a900460ff1615151461088d57600080fd5b600181600001540181600001819055505050565b60001515600560009054906101000a900460ff161515146108c157600080fd5b3373ffffffffffffffffffffffffffffffffffffffff166000809054906101000a900473ffffffffffffffffffffffffffffffffffffffff1673ffffffffffffffffffffffffffffffffffffffff161461091a57600080fd5b6001600560006101000a81548160ff021916908315150217905550565b6000809054906101000a900473ffffffffffffffffffffffffffffffffffffffff1681565b60405180608001604052806000815260200160608152602001600015158152602001600015158152509056fea265627a7a72315820ba7859db49ccb973a0b28b108e4a62b079cdc101842d78b92aaecdaabe678f8564736f6c634300050c0032",
  "source": "pragma solidity ^0.5.11;\r\n\r\ncontract Voting {\r\n    address owner;\r\n    VoteEvent[] events;\r\n\r\n    constructor() public{\r\n        owner = msg.sender;\r\n    }\r\n\r\n\r\n    function createEvent(string memory description) public {\r\n        VoteEvent evt = new VoteEvent(msg.sender, description);\r\n        events.push(evt);\r\n    }\r\n\r\n    function getEvents() public view returns (VoteEvent[] memory){\r\n        return events;\r\n    }\r\n}\r\n\r\ncontract VoteEvent {\r\n    address public host;\r\n    string public description;\r\n    mapping(address=>bool) votedAccount;\r\n    mapping(address=>Applicant) registeredApplicants;\r\n    address[] approvedApplicantAddr;\r\n    bool isEnd;\r\n    \r\n    struct Applicant {\r\n        uint256 votedResult;\r\n        string name;\r\n        bool approved;\r\n        bool registered;\r\n    }\r\n\r\n    constructor(address owner, string memory des) public{\r\n        host = owner;\r\n        description = des;\r\n    }\r\n\r\n    modifier isHost() {\r\n        require(host==msg.sender);\r\n        _;\r\n    }\r\n\r\n    modifier isNotEnd {\r\n        require(isEnd == false);\r\n        _;\r\n    }\r\n    \r\n    \r\n    \r\n    modifier isRegisterd(address applicant) {\r\n        Applicant memory registeredApplicant = registeredApplicants[applicant];\r\n        require(registeredApplicant.registered==true);\r\n        _;\r\n    }\r\n\r\n\r\n    function approveApplicant(address applicant) isRegisterd(applicant) isHost public {\r\n        registeredApplicants[applicant].approved = true;\r\n        approvedApplicantAddr.push(applicant);\r\n    }\r\n\r\n    function closeEven() isNotEnd isHost public {\r\n        isEnd = true;\r\n    }\r\n\r\n    function registerAsApplicant() public {\r\n        address applicant = msg.sender;\r\n        require( registeredApplicants[applicant].registered == false );\r\n        registeredApplicants[applicant].registered = true;\r\n    }\r\n\r\n    function voteFor(address applicant) public {\r\n        require( votedAccount[msg.sender]==false );\r\n        require( isEnd==false );\r\n        votedAccount[msg.sender] = true;\r\n        Applicant storage registeredApplicant = registeredApplicants[applicant];\r\n        \r\n        require(registeredApplicant.approved == true);\r\n        \r\n        registeredApplicant.votedResult = registeredApplicant.votedResult + 1;\r\n    }\r\n    \r\n    function getAllApplicantAddr() public view returns(address[] memory){\r\n        return approvedApplicantAddr;\r\n    }\r\n    \r\n    function getResultFor(address applicant) public view returns (uint256) {\r\n        return registeredApplicants[applicant].votedResult;\r\n    }\r\n    \r\n}",
  "sourcePath": "C:/Users/Asus/Desktop/kendrikkoin/contracts/VotingChain.sol",
  "compiler": {
    "name": "solc",
    "version": "0.5.12+commit.7709ece9.Emscripten.clang"
  },
  "schemaVersion": "3.0.19",
  "updatedAt": "2020-01-17T14:58:43.783Z",
  "devdoc": {
    "methods": {}
  },
  "userdoc": {
    "methods": {}
  }
}